{
  "_format": "hh3-artifact-1",
  "contractName": "VotingSystem",
  "sourceName": "contracts/VotingSystem.sol",
  "abi": [
    {
      "inputs": [
        {
          "internalType": "address",
          "name": "_tokenAddress",
          "type": "address"
        }
      ],
      "stateMutability": "nonpayable",
      "type": "constructor"
    },
    {
      "inputs": [
        {
          "internalType": "address",
          "name": "owner",
          "type": "address"
        }
      ],
      "name": "OwnableInvalidOwner",
      "type": "error"
    },
    {
      "inputs": [
        {
          "internalType": "address",
          "name": "account",
          "type": "address"
        }
      ],
      "name": "OwnableUnauthorizedAccount",
      "type": "error"
    },
    {
      "anonymous": false,
      "inputs": [
        {
          "indexed": true,
          "internalType": "address",
          "name": "previousOwner",
          "type": "address"
        },
        {
          "indexed": true,
          "internalType": "address",
          "name": "newOwner",
          "type": "address"
        }
      ],
      "name": "OwnershipTransferred",
      "type": "event"
    },
    {
      "anonymous": false,
      "inputs": [
        {
          "indexed": true,
          "internalType": "address",
          "name": "user",
          "type": "address"
        },
        {
          "indexed": false,
          "internalType": "uint256",
          "name": "amount",
          "type": "uint256"
        },
        {
          "indexed": false,
          "internalType": "uint256",
          "name": "roundId",
          "type": "uint256"
        },
        {
          "indexed": false,
          "internalType": "string",
          "name": "rewardType",
          "type": "string"
        }
      ],
      "name": "RewardDistributed",
      "type": "event"
    },
    {
      "anonymous": false,
      "inputs": [
        {
          "indexed": false,
          "internalType": "uint256",
          "name": "roundId",
          "type": "uint256"
        },
        {
          "indexed": false,
          "internalType": "string",
          "name": "title",
          "type": "string"
        },
        {
          "indexed": false,
          "internalType": "uint256",
          "name": "rewardPool",
          "type": "uint256"
        }
      ],
      "name": "RoundCreated",
      "type": "event"
    },
    {
      "anonymous": false,
      "inputs": [
        {
          "indexed": false,
          "internalType": "uint256",
          "name": "roundId",
          "type": "uint256"
        },
        {
          "indexed": false,
          "internalType": "address[3]",
          "name": "winners",
          "type": "address[3]"
        }
      ],
      "name": "RoundEnded",
      "type": "event"
    },
    {
      "anonymous": false,
      "inputs": [
        {
          "indexed": false,
          "internalType": "uint256",
          "name": "roundId",
          "type": "uint256"
        },
        {
          "indexed": false,
          "internalType": "address",
          "name": "voter",
          "type": "address"
        },
        {
          "indexed": false,
          "internalType": "uint256",
          "name": "candidateId",
          "type": "uint256"
        }
      ],
      "name": "Voted",
      "type": "event"
    },
    {
      "inputs": [
        {
          "internalType": "uint256",
          "name": "_roundId",
          "type": "uint256"
        },
        {
          "internalType": "string",
          "name": "_name",
          "type": "string"
        },
        {
          "internalType": "address payable",
          "name": "_wallet",
          "type": "address"
        }
      ],
      "name": "addCandidate",
      "outputs": [],
      "stateMutability": "nonpayable",
      "type": "function"
    },
    {
      "inputs": [
        {
          "internalType": "string",
          "name": "_title",
          "type": "string"
        },
        {
          "internalType": "uint256",
          "name": "_durationInSeconds",
          "type": "uint256"
        },
        {
          "internalType": "uint256",
          "name": "_rewardPool",
          "type": "uint256"
        }
      ],
      "name": "createRound",
      "outputs": [],
      "stateMutability": "nonpayable",
      "type": "function"
    },
    {
      "inputs": [
        {
          "internalType": "uint256",
          "name": "_roundId",
          "type": "uint256"
        }
      ],
      "name": "endRound",
      "outputs": [],
      "stateMutability": "nonpayable",
      "type": "function"
    },
    {
      "inputs": [
        {
          "internalType": "uint256",
          "name": "amount",
          "type": "uint256"
        }
      ],
      "name": "fundContract",
      "outputs": [],
      "stateMutability": "nonpayable",
      "type": "function"
    },
    {
      "inputs": [
        {
          "internalType": "uint256",
          "name": "_roundId",
          "type": "uint256"
        },
        {
          "internalType": "uint256",
          "name": "_candidateId",
          "type": "uint256"
        }
      ],
      "name": "getCandidateVoters",
      "outputs": [
        {
          "internalType": "address[]",
          "name": "",
          "type": "address[]"
        }
      ],
      "stateMutability": "view",
      "type": "function"
    },
    {
      "inputs": [
        {
          "internalType": "uint256",
          "name": "_roundId",
          "type": "uint256"
        }
      ],
      "name": "getCandidates",
      "outputs": [
        {
          "components": [
            {
              "internalType": "uint256",
              "name": "id",
              "type": "uint256"
            },
            {
              "internalType": "string",
              "name": "name",
              "type": "string"
            },
            {
              "internalType": "uint256",
              "name": "voteCount",
              "type": "uint256"
            },
            {
              "internalType": "address payable",
              "name": "wallet",
              "type": "address"
            },
            {
              "internalType": "address[]",
              "name": "voters",
              "type": "address[]"
            }
          ],
          "internalType": "struct VotingSystem.Candidate[]",
          "name": "",
          "type": "tuple[]"
        }
      ],
      "stateMutability": "view",
      "type": "function"
    },
    {
      "inputs": [
        {
          "internalType": "address",
          "name": "_user",
          "type": "address"
        }
      ],
      "name": "getUserRewardHistory",
      "outputs": [
        {
          "components": [
            {
              "internalType": "uint256",
              "name": "roundId",
              "type": "uint256"
            },
            {
              "internalType": "string",
              "name": "roundTitle",
              "type": "string"
            },
            {
              "internalType": "uint256",
              "name": "amount",
              "type": "uint256"
            },
            {
              "internalType": "uint256",
              "name": "rank",
              "type": "uint256"
            },
            {
              "internalType": "uint256",
              "name": "timestamp",
              "type": "uint256"
            }
          ],
          "internalType": "struct VotingSystem.RewardRecord[]",
          "name": "",
          "type": "tuple[]"
        }
      ],
      "stateMutability": "view",
      "type": "function"
    },
    {
      "inputs": [
        {
          "internalType": "uint256",
          "name": "",
          "type": "uint256"
        },
        {
          "internalType": "address",
          "name": "",
          "type": "address"
        }
      ],
      "name": "hasVoted",
      "outputs": [
        {
          "internalType": "bool",
          "name": "",
          "type": "bool"
        }
      ],
      "stateMutability": "view",
      "type": "function"
    },
    {
      "inputs": [
        {
          "internalType": "address",
          "name": "_user",
          "type": "address"
        }
      ],
      "name": "isAdmin",
      "outputs": [
        {
          "internalType": "bool",
          "name": "",
          "type": "bool"
        }
      ],
      "stateMutability": "view",
      "type": "function"
    },
    {
      "inputs": [
        {
          "internalType": "uint256",
          "name": "",
          "type": "uint256"
        },
        {
          "internalType": "address",
          "name": "",
          "type": "address"
        }
      ],
      "name": "isCandidateInRound",
      "outputs": [
        {
          "internalType": "bool",
          "name": "",
          "type": "bool"
        }
      ],
      "stateMutability": "view",
      "type": "function"
    },
    {
      "inputs": [],
      "name": "owner",
      "outputs": [
        {
          "internalType": "address",
          "name": "",
          "type": "address"
        }
      ],
      "stateMutability": "view",
      "type": "function"
    },
    {
      "inputs": [],
      "name": "renounceOwnership",
      "outputs": [],
      "stateMutability": "nonpayable",
      "type": "function"
    },
    {
      "inputs": [],
      "name": "rewardToken",
      "outputs": [
        {
          "internalType": "contract IERC20",
          "name": "",
          "type": "address"
        }
      ],
      "stateMutability": "view",
      "type": "function"
    },
    {
      "inputs": [
        {
          "internalType": "uint256",
          "name": "",
          "type": "uint256"
        },
        {
          "internalType": "uint256",
          "name": "",
          "type": "uint256"
        }
      ],
      "name": "roundCandidates",
      "outputs": [
        {
          "internalType": "uint256",
          "name": "id",
          "type": "uint256"
        },
        {
          "internalType": "string",
          "name": "name",
          "type": "string"
        },
        {
          "internalType": "uint256",
          "name": "voteCount",
          "type": "uint256"
        },
        {
          "internalType": "address payable",
          "name": "wallet",
          "type": "address"
        }
      ],
      "stateMutability": "view",
      "type": "function"
    },
    {
      "inputs": [],
      "name": "roundCount",
      "outputs": [
        {
          "internalType": "uint256",
          "name": "",
          "type": "uint256"
        }
      ],
      "stateMutability": "view",
      "type": "function"
    },
    {
      "inputs": [
        {
          "internalType": "uint256",
          "name": "",
          "type": "uint256"
        },
        {
          "internalType": "uint256",
          "name": "",
          "type": "uint256"
        }
      ],
      "name": "roundVoters",
      "outputs": [
        {
          "internalType": "address",
          "name": "",
          "type": "address"
        }
      ],
      "stateMutability": "view",
      "type": "function"
    },
    {
      "inputs": [
        {
          "internalType": "uint256",
          "name": "",
          "type": "uint256"
        }
      ],
      "name": "rounds",
      "outputs": [
        {
          "internalType": "uint256",
          "name": "id",
          "type": "uint256"
        },
        {
          "internalType": "string",
          "name": "title",
          "type": "string"
        },
        {
          "internalType": "uint256",
          "name": "endTime",
          "type": "uint256"
        },
        {
          "internalType": "bool",
          "name": "isActive",
          "type": "bool"
        },
        {
          "internalType": "uint256",
          "name": "totalRewardPool",
          "type": "uint256"
        }
      ],
      "stateMutability": "view",
      "type": "function"
    },
    {
      "inputs": [
        {
          "internalType": "string",
          "name": "_name",
          "type": "string"
        }
      ],
      "name": "setUsername",
      "outputs": [],
      "stateMutability": "nonpayable",
      "type": "function"
    },
    {
      "inputs": [
        {
          "internalType": "address",
          "name": "newOwner",
          "type": "address"
        }
      ],
      "name": "transferOwnership",
      "outputs": [],
      "stateMutability": "nonpayable",
      "type": "function"
    },
    {
      "inputs": [
        {
          "internalType": "address",
          "name": "",
          "type": "address"
        },
        {
          "internalType": "uint256",
          "name": "",
          "type": "uint256"
        }
      ],
      "name": "userRewards",
      "outputs": [
        {
          "internalType": "uint256",
          "name": "roundId",
          "type": "uint256"
        },
        {
          "internalType": "string",
          "name": "roundTitle",
          "type": "string"
        },
        {
          "internalType": "uint256",
          "name": "amount",
          "type": "uint256"
        },
        {
          "internalType": "uint256",
          "name": "rank",
          "type": "uint256"
        },
        {
          "internalType": "uint256",
          "name": "timestamp",
          "type": "uint256"
        }
      ],
      "stateMutability": "view",
      "type": "function"
    },
    {
      "inputs": [
        {
          "internalType": "address",
          "name": "",
          "type": "address"
        }
      ],
      "name": "usernames",
      "outputs": [
        {
          "internalType": "string",
          "name": "",
          "type": "string"
        }
      ],
      "stateMutability": "view",
      "type": "function"
    },
    {
      "inputs": [
        {
          "internalType": "uint256",
          "name": "_roundId",
          "type": "uint256"
        },
        {
          "internalType": "uint256",
          "name": "_candidateId",
          "type": "uint256"
        }
      ],
      "name": "vote",
      "outputs": [],
      "stateMutability": "nonpayable",
      "type": "function"
    }
  ],
  "bytecode": "0x60803460cd57601f61204738819003918201601f19168301916001600160401b0383118484101760d15780849260209460405283398101031260cd57516001600160a01b0381169081900360cd57331560ba575f8054336001600160a01b0319821681178355604051939290916001600160a01b0316907f8be0079c531659141344cd1fd0a4f28419497f9722a3daafe3b4186f6b6457e09080a3600180546001600160a01b031916919091179055611f6190816100e68239f35b631e4fbdf760e01b5f525f60045260245ffd5b5f80fd5b634e487b7160e01b5f52604160045260245ffdfe60806040526004361015610011575f80fd5b5f3560e01c806301fb8f8a146116f3578063026254bd14611679578063127f0b3f1461165c57806324d7806c146116285780633519a2f8146115ba5780633c468524146114715780633e39a7a51461132057806341403d301461118c57806343859632146111435780635a1e6ca1146109a257806363c2a20a1461090c578063715018a6146108b55780638371a6df1461086c5780638c65c81f146107f85780638da5cb5b146107d15780639427c8de146105df578063ab27f08514610564578063b384abef1461031b578063ed59313a1461020c578063ee91877c146101bc578063f2fde38b146101375763f7c618c11461010b575f80fd5b34610133575f366003190112610133576001546040516001600160a01b039091168152602090f35b5f80fd5b346101335760203660031901126101335761015061177a565b610158611f05565b6001600160a01b031680156101a9575f80546001600160a01b03198116831782556001600160a01b0316907f8be0079c531659141344cd1fd0a4f28419497f9722a3daafe3b4186f6b6457e09080a3005b631e4fbdf760e01b5f525f60045260245ffd5b34610133576020366003190112610133576001600160a01b036101dd61177a565b165f5260096020526102086101f460405f206118ac565b6040519182916020835260208301906117a6565b0390f35b34610133576020366003190112610133576004356001600160401b0381116101335761023c903690600401611806565b335f52600960205260405f2081516001600160401b0381116103075761026c816102668454611874565b84611a35565b602092601f82116001146102ab5761029c929382915f926102a0575b50508160011b915f199060031b1c19161790565b9055005b015190508480610288565b601f19821693835f52805f20915f5b8681106102ef57508360019596106102d7575b505050811b019055005b01515f1960f88460031b161c191690558380806102cd565b919260206001819286850151815501940192016102ba565b634e487b7160e01b5f52604160045260245ffd5b34610133576103293661173b565b9060018060a01b035f5416331461052b57805f52600360205260ff600360405f20015416156104f857805f526003602052600260405f2001544210156104c4575f81815260056020908152604080832033845290915290205460ff1661048f57805f52600460205261039e8260405f2061185b565b5060038101549091906001600160a01b0316331461044a577f1abe610cf2bf87e57dcc1181fcf5ac0934e843d8344ab9eed6e86c799f62585e926103f8836002606095016103ec8154611d67565b90556004339101611ec4565b815f52600560205260405f2060018060a01b0333165f5260205260405f20600160ff19825416179055815f5260076020526104363360405f20611ec4565b6040519182523360208301526040820152a1005b60405162461bcd60e51b815260206004820152601860248201527f43616e6e6f7420766f746520666f7220796f757273656c6600000000000000006044820152606490fd5b60405162461bcd60e51b815260206004820152600d60248201526c105b1c9958591e481d9bdd1959609a1b6044820152606490fd5b60405162461bcd60e51b815260206004820152600c60248201526b151a5b5948195e1c1a5c995960a21b6044820152606490fd5b60405162461bcd60e51b815260206004820152600b60248201526a149bdd5b9908195b99195960aa1b6044820152606490fd5b60405162461bcd60e51b815260206004820152601160248201527041646d696e2063616e6e6f7420766f746560781b6044820152606490fd5b34610133576105723661173b565b905f52600460205260405f20908154811015610133576105919161185b565b5080546105a0600183016118ac565b91600281015490600360018060a01b03910154166105d060405194859485526080602086015260808501906117a6565b91604084015260608301520390f35b34610133576060366003190112610133576004356001600160401b0381116101335761060f903690600401611806565b6044359061061b611f05565b610626600254611d67565b918260025561063760243542611c19565b9260405190610645826117ca565b80825260208201948486526040830190815260608301906001825260808401928584525f52600360205260405f20935184556001840196519687516001600160401b0381116103075761069c816102668454611874565b6020601f82116001146107485781600496959493926106f1927fbaa48f73e1fd3090122b153cb7dfd0877dca73c694dc67a9daf7b4959d442fa19c5f9261073d5750508160011b915f199060031b1c19161790565b90555b516002850155600384019051151560ff80198354169116179055519101556002549061073260405193849384526060602085015260608401906117a6565b9060408301520390a1005b015190508c80610288565b601f19821699835f52815f209a5f5b8181106107b957509a6001928492600499989796957fbaa48f73e1fd3090122b153cb7dfd0877dca73c694dc67a9daf7b4959d442fa19e106107a1575b505050811b0190556106f4565b01515f1960f88460031b161c191690558b8080610794565b838301518d556001909c019b60209384019301610757565b34610133575f366003190112610133575f546040516001600160a01b039091168152602090f35b34610133576020366003190112610133576004355f52600360205260405f208054610825600183016118ac565b91600281015490600460ff60038301541691015490610856604051958695865260a0602087015260a08601906117a6565b9260408501521515606084015260808301520390f35b3461013357604036600319011261013357610885611790565b6004355f52600660205260405f209060018060a01b03165f52602052602060ff60405f2054166040519015158152f35b34610133575f366003190112610133576108cd611f05565b5f80546001600160a01b0319811682556001600160a01b03167f8be0079c531659141344cd1fd0a4f28419497f9722a3daafe3b4186f6b6457e08280a3005b346101335760403660031901126101335761092561177a565b6001600160a01b03165f908152600860205260409020805460243590811015610133576109519161185b565b508054610960600183016118ac565b91600281015490600460038201549101549061098e604051958695865260a0602087015260a08601906117a6565b926040850152606084015260808301520390f35b34610133576020366003190112610133576004356109be611f05565b805f52600360205260405f2060038101805460ff8116156111085760ff191690556001546040516370a0823160e01b815230600482015290602090829060249082906001600160a01b03165afa908115610dd4575f916110d6575b506004820190815411611091579190815f52600460205260405f20915f935b8354851015610b6e5760018501808611610b5a575b8454811015610b4e576002610a62828761185b565b5001546002610a71888861185b565b50015410610a82575b600101610a4d565b610a95610a8f878761185b565b506119cc565b90610aa0818761185b565b5091610aac888861185b565b919091610b3b578382600195610ad49403610adb575b5050610ace838961185b565b90611aaa565b9050610a7a565b60048083610b3494548455610af48982018a8601611c26565b60028101546002850155888060a01b0360038201541660038501908a8060a01b03166bffffffffffffffffffffffff60a01b825416179055019101611cff565b8980610ac2565b634e487b7160e01b5f525f60045260245ffd5b50600190940193610a38565b634e487b7160e01b5f52601160045260245ffd5b919060405191606083018381106001600160401b038211176103075760405260288352601e602084015260146040840152606091604051610baf84826117e5565b833682375f93845b88549081871080611087575b15610e8e576002610bd4888c61185b565b50015415610e7d57600191828801808911610b5a57905b8b818310610e2f575b5050505f5f5b838110610ddf575080610c26575b5090610c1781610c1d93611c19565b96611c19565b955b9594610bb7565b8954818102918183041490151715610b5a57826064610c459204611d86565b60018701908b5f5b8a868210610c5e5750505050610c08565b610a8f610c6e83610c7593611c19565b809461185b565b600154908801805160405163a9059cbb60e01b81526001600160a01b03918216600482015260248101879052919492602091839160449183915f91165af18015610dd457610da8575b5060038110610d8b575b5081516001600160a01b03165f908152600860205260409020600186019290838711610b5a57600193610d289160405191610d02836117ca565b8d8352610d0e896118ac565b60208401528760408401528b830152426080830152611da4565b828060a01b039051167fd83308e9158842b2115ec5e6f6395db42fff24e4b5506ef42fe33854fafad65560a06040518681528c60208201528a6040820152600d8b8201526c21a0a72224a220aa22afaba4a760991b6080820152a2018c90610c4d565b82516001600160a01b031690610da1908a611d75565b528e610cc8565b610dc89060203d8111610dcd575b610dc081836117e5565b81019061199d565b610cbe565b503d610db6565b6040513d5f823e3d90fd5b6003610df182859b9c94969d95611c19565b10610e06575b60010199929098979199610bfa565b92610e27600191610e20610e1a878d611c19565b85611d75565b5190611c19565b939050610df7565b6002610e518b82869f979d9e989596610e48908661185b565b5001549361185b565b50015403610e7257610e64600191611d67565b9a0190999298979199610beb565b92989791998b610bf4565b95610e889150611d67565b95610c1f565b5050838791845f526007602052610ea760405f2061194c565b928351610f0f575b50505050604051918252602082015f905b60038210610eef577f4f798b478e1543fd825383af65a15ab2655c91cf114272c4cbf2f60f6b942d53608085a1005b82516001600160a01b031681526020928301926001929092019101610ec0565b54600a810290808204600a1490151715610b5a57610f3290606485519104611d86565b8015610eaf579294929091600101905f5b8651811015611078576001545f91906020906001600160a01b0390811690604490610f6e858d611eb0565b5116604051958693849263a9059cbb60e01b845260048401528860248401525af1918215610dd45760019261105c575b50818060a01b03610faf828a611eb0565b51165f526008602052610ff360405f2060405190610fcc826117ca565b888252610fd8876118ac565b60208301528560408301525f88830152426080830152611da4565b818060a01b03611003828a611eb0565b51167fd83308e9158842b2115ec5e6f6395db42fff24e4b5506ef42fe33854fafad65560a0604051868152896020820152886040820152600c898201526b1593d5115497d49155d0549160a21b6080820152a201610f43565b6110739060203d8111610dcd57610dc081836117e5565b610f9e565b50505050915082808080610eaf565b5060038110610bc3565b60405162461bcd60e51b815260206004820152601d60248201527f496e73756666696369656e7420636f6e74726163742062616c616e63650000006044820152606490fd5b90506020813d602011611100575b816110f1602093836117e5565b81010312610133575183610a19565b3d91506110e4565b60405162461bcd60e51b8152602060048201526013602482015272149bdd5b9908185b1c9958591e48195b991959606a1b6044820152606490fd5b346101335760403660031901126101335761115c611790565b6004355f52600560205260405f209060018060a01b03165f52602052602060ff60405f2054166040519015158152f35b34610133576060366003190112610133576004356024356001600160401b038111610133576111bf903690600401611806565b6044356001600160a01b038116929190839003610133576111de611f05565b815f52600360205260ff600360405f20015416156112e857815f52600660205260405f20835f5260205260ff60405f205416611294575f82815260046020526040908190208054915190929091611234836117ca565b825260208201525f604082015283606082015260606080820152815491600160401b8310156103075782610ace9160016112709501815561185b565b5f52600660205260405f20905f5260205260405f20600160ff198254161790555f80f35b60405162461bcd60e51b815260206004820152602660248201527f43616e64696461746520616c72656164792065786973747320696e2074686973604482015265081c9bdd5b9960d21b6064820152608490fd5b60405162461bcd60e51b815260206004820152601060248201526f526f756e64206e6f742061637469766560801b6044820152606490fd5b34610133576020366003190112610133576004355f52600460205260405f2080549061134b826119b5565b9161135960405193846117e5565b8083526020830180925f5260205f205f915b83831061145357848660405191829160208301906020845251809152604083019060408160051b85010192915f905b8282106113a957505050500390f35b919390929450603f1986820301825284518051825260806113d9602083015160a0602086015260a08501906117a6565b916040810151604085015260018060a01b0360608201511660608501520151916080818303910152602080835192838152019201905f905b80821061143157505050602080600192960192019201859493919261139a565b82516001600160a01b0316845260209384019390920191600190910190611411565b60056020600192611463856119cc565b81520192019201919061136b565b34610133576020366003190112610133576001600160a01b0361149261177a565b165f52600860205260405f208054906114aa826119b5565b916114b860405193846117e5565b8083526020830180925f5260205f205f915b83831061156857848660405191829160208301906020845251809152604083019060408160051b85010192915f905b82821061150857505050500390f35b919360019193955060208091603f198982030185528751908151815260808061153e8585015160a08786015260a08501906117a6565b936040810151604085015260608101516060850152015191015296019201920185949391926114f9565b6005602060019260405161157b816117ca565b8554815261158a8587016118ac565b838201526002860154604082015260038601546060820152600486015460808201528152019201920191906114ca565b34610133576020366003190112610133575f602060018060a01b03600154166064604051809481936323b872dd60e01b835233600484015230602484015260043560448401525af18015610dd45761160e57005b6116269060203d602011610dcd57610dc081836117e5565b005b3461013357602036600319011261013357602061164361177a565b5f546040516001600160a01b0392831691909216148152f35b34610133575f366003190112610133576020600254604051908152f35b34610133576116a6600461169f61168f3661173b565b905f528260205260405f2061185b565b500161194c565b6040518091602082016020835281518091526020604084019201905f5b8181106116d1575050500390f35b82516001600160a01b03168452859450602093840193909201916001016116c3565b34610133576117013661173b565b905f52600760205260405f2080548210156101335760209161172291611751565b905460405160039290921b1c6001600160a01b03168152f35b6040906003190112610133576004359060243590565b8054821015611766575f5260205f2001905f90565b634e487b7160e01b5f52603260045260245ffd5b600435906001600160a01b038216820361013357565b602435906001600160a01b038216820361013357565b805180835260209291819084018484015e5f828201840152601f01601f1916010190565b60a081019081106001600160401b0382111761030757604052565b90601f801991011681019081106001600160401b0382111761030757604052565b81601f82011215610133578035906001600160401b038211610307576040519261183a601f8401601f1916602001856117e5565b8284526020838301011161013357815f926020809301838601378301015290565b8054821015611766575f52600560205f20910201905f90565b90600182811c921680156118a2575b602083101461188e57565b634e487b7160e01b5f52602260045260245ffd5b91607f1691611883565b9060405191825f8254926118bf84611874565b808452936001811690811561192a57506001146118e6575b506118e4925003836117e5565b565b90505f9291925260205f20905f915b81831061190e5750509060206118e4928201015f6118d7565b60209193508060019154838589010152019101909184926118f5565b9050602092506118e494915060ff191682840152151560051b8201015f6118d7565b90604051918281549182825260208201905f5260205f20925f5b81811061197b5750506118e4925003836117e5565b84546001600160a01b0316835260019485019487945060209093019201611966565b90816020910312610133575180151581036101335790565b6001600160401b0381116103075760051b60200190565b906040516119d9816117ca565b6080611a1a60048395805485526119f2600182016118ac565b60208601526002810154604086015260038101546001600160a01b031660608601520161194c565b910152565b818110611a2a575050565b5f8155600101611a1f565b9190601f8111611a4457505050565b6118e4925f5260205f20906020601f840160051c83019310611a6e575b601f0160051c0190611a1f565b9091508190611a61565b90600160401b811161030757815490808355818110611a9657505050565b6118e4925f5260205f209182019101611a1f565b90610b3b57815181556001810160208301518051906001600160401b03821161030757611ae182611adb8554611874565b85611a35565b602090601f8311600114611bb057826080959360049593611b16935f92611ba55750508160011b915f199060031b1c19161790565b90555b6040840151600282015560608401516003820180546001600160a01b0319166001600160a01b03929092169190911790559190920151805192909101906001600160401b03831161030757602090611b718484611a78565b01905f5260205f205f5b838110611b885750505050565b82516001600160a01b031681830155602090920191600101611b7b565b015190505f80610288565b90601f19831691845f52815f20925f5b818110611c015750926001928592608098966004989610611be9575b505050811b019055611b19565b01515f1960f88460031b161c191690555f8080611bdc565b92936020600181928786015181550195019301611bc0565b91908201809211610b5a57565b919091828114611cfa57611c3a8354611874565b6001600160401b03811161030757611c56816102668454611874565b5f93601f8211600114611c9457611c8592939482915f92611c895750508160011b915f199060031b1c19161790565b9055565b015490505f80610288565b601f198216905f5260205f2094835f5260205f20915f5b818110611ce257509583600195969710611cca575b505050811b019055565b01545f1960f88460031b161c191690555f8080611cc0565b9192600180602092868b015481550194019201611cab565b509050565b818114611d63578154916001600160401b03831161030757611d218383611a78565b5f5260205f20905f5260205f208154915f925b848410611d42575050505050565b600191820180546001600160a01b0390921684860155939091019290611d34565b5050565b5f198114610b5a5760010190565b9060038110156117665760051b0190565b8115611d90570490565b634e487b7160e01b5f52601260045260245ffd5b8054600160401b81101561030757611dc19160018201815561185b565b919091610b3b57805182556001820160208201518051906001600160401b03821161030757611df482611adb8554611874565b602090601f8311600114611e4757826004959360809593611e29935f92611ba55750508160011b915f199060031b1c19161790565b90555b60408101516002850155606081015160038501550151910155565b90601f19831691845f52815f20925f5b818110611e985750926001928592600498966080989610611e80575b505050811b019055611e2c565b01515f1960f88460031b161c191690555f8080611e73565b92936020600181928786015181550195019301611e57565b80518210156117665760209160051b010190565b8054600160401b81101561030757611ee191600182018155611751565b81546001600160a01b0393841660039290921b91821b9390911b1916919091179055565b5f546001600160a01b03163303611f1857565b63118cdaa760e01b5f523360045260245ffdfea2646970667358221220db34a6d4ac74346eaa45cb8b7e7affbc8f768bd7d7bd77d3756615fe490aecfd64736f6c634300081c0033",
  "linkReferences": {},
  "deployedLinkReferences": {},
  "immutableReferences": {},
  "inputSourceName": "project/contracts/VotingSystem.sol",
  "buildInfoId": "solc-0_8_28-ae8fb053b85af82133ac162c0aefb9c0b71cad67"
}